:020000040800F2
:10000000700C002059020008610200086302000819
:10001000650200086702000869020008000000008D
:100020000000000000000000000000006B0200085B
:100030006D020008000000006F0200087102000855
:1000400073020008730200087302000873020008BC
:1000500073020008730200087302000873020008AC
:10006000730200087302000873020008730200089C
:10007000730200087302000873020008730200088C
:10008000730200087302000873020008730200087C
:10009000730200087302000873020008730200086C
:1000A00073020008392A000873020008730200086E
:1000B000730200086D2A000873020008730200082A
:1000C000730200087302000873020008730200083C
:1000D00073020008F52C00081D2E000841310008AD
:1000E000730200087302000873020008730200081C
:1000F000730200087302000873020008730200080C
:1001000073020008730200087302000873020008FB
:1001100073020008730200087302000873020008EB
:1001200073020008730200087302000873020008DB
:1001300073020008730200087302000873020008CB
:1001400073020008730200087302000873020008BB
:1001500073020008730200087302000873020008AB
:10016000730200087302000873020008730200089B
:10017000730200087302000873020008730200088B
:10018000730200087302000800F002F800F055F84E
:100190000AA090E8000C82448344AAF10107DA45E2
:1001A00001D100F04AF8AFF2090EBAE80F0013F0DF
:1001B000010F18BFFB1A43F001031847CC4400009D
:1001C000EC440000103A24BF78C878C1FAD852072E
:1001D00024BF30C830C144BF04680C6070470000C1
:1001E0000023002400250026103A28BF78C1FBD840
:1001F000520728BF30C148BF0B607047662904F022
:100200006F81642900F09280732900F0B28400208D
:1002100070471FB504F05AF900F04AFF04000020AF
:10022000002103F0B9FD401C60600020002103F0B4
:100230009DFDE0601FBD10B510BD01F0FFF9114636
:10024000FFF7E7FF03F0D2FC01F05CFC03B4FFF71B
:10025000F2FF03BC01F0C2FC09488047094800478F
:10026000FEE7FEE7FEE7FEE7FEE7FEE7FEE7FEE766
:10027000FEE7FEE704480549054A064B70470000C3
:10028000D12900088901000870060020700C0020A8
:1002900070080020700800200FB4044910B503AAAC
:1002A000029800F06BFC10BC5DF814FB1C000020F1
:1002B0000FB41CB5074B06AA7B446946009005980D
:1002C00000F02DFC0020694600F03CFC1CBC5DF8F1
:1002D00014FB00008908000070B50C460546012A91
:1002E00005D02878800600D5EA69002302E00123C2
:1002F00005E05B1C934202D2E05C0028F9D1A869BA
:10030000E618C01AA861286A184428622846AFF384
:10031000008004E0D5E9012114F8010B9047B442B4
:10032000F8D32846AFF3008070BD00002DE9F041FE
:100330000646002410687529314616A510D0AFF383
:100340000080002802DA404213A507E031688A07DE
:1003500001D512A502E0490704D511A5012401E049
:10036000AFF3008000210A2206F1240709E0B0FB68
:10037000F2FCB0FBF2F302FB1C003030785418465C
:10038000491C0028F3D123462A463046BDE8F041F7
:1003900000F059B9000000002D0000002B00000003
:1003A000200000002DE9F05F894604464FF0000A66
:1003B000DFF824B1FB44C0F820A02046E16888475C
:1003C00000287DD0252806D0D4E901219047206A55
:1003D000401C2062F1E700255F462046E16888471F
:1003E0002028064607DB312E05D2B81910F8200C5C
:1003F00008B10543F1E7A80701D525F00405C4F8C5
:100400001CA00027C4F818A02A2E09D0304603F0FB
:1004100031F938B304EB8708303EC8F8186019E0AA
:1004200059F8041B204604EB87029161E168884774
:10043000012F064618D1E069002820DA25F02005B2
:100440001DE0D8F8180000EB800006EB40003038C3
:10045000C8F818002046E1688847064603F00AF904
:100460000028EED1012F0AD02E2E08D12046E168B7
:1004700088477F1C0646022F45F02005C4DBA06993
:10048000002803DA404245F00105A061E80701D0E9
:1004900025F01005A6B1A6F14100192802D8203692
:1004A00045F400654A463146204625604D46FFF733
:1004B000A5FE60B1012807D0ED1D25F0070000E082
:1004C00007E000F1080978E705F1040975E730460F
:1004D0007AE7206ABDE8F09F284200000FB400B51B
:1004E0008DB010A9099000910B904FF0FF300A9049
:1004F00000200C90064878440690064878446A46E6
:1005000007900F9909A800F0A3FD0DB05DF814FB4A
:10051000770B00008F0B000040EA010370B59B07CA
:100520002ED14FF00136042A2AD308C810C99D1BCA
:100530009D43121F15EAC61517D0D8B2E1B2401A72
:1005400050EA056110D198B2A1B2401A50EA0541B3
:100550000AD123F07F4024F07F41401A50EA052160
:1005600002D1180EA0EB146070BDA342DBD018BA04
:1005700021BA884201D9012070BD4FF0FF3070BD13
:100580000AB9002070BD10F8013B11F8014B63B1AE
:10059000A3420AD1521E08D010F8013B11F8014BBA
:1005A0001BB1A34201D1521EEDD1181B70BD4FF0FB
:1005B00000020429C0F0128010F0030C00F01B8030
:1005C000CCF1040CBCF1020F18BF00F8012BA8BF3E
:1005D00020F8022BA1EB0C0100F00DB85FEAC17C02
:1005E00024BF00F8012B00F8012B48BF00F8012BB5
:1005F00070474FF0000200B51346944696462039E6
:1006000022BFA0E80C50A0E80C50B1F12001BFF4CB
:10061000F7AF090728BFA0E80C5048BF0CC05DF831
:1006200004EB890028BF40F8042B08BF704748BF7F
:1006300020F8022B11F0804F18BF00F8012B7047F3
:100640007047704770472DE9F0470D46994692462E
:10065000044600F124080168880604D5E06921F009
:100660001001216000E00120A84201DD471B00E0ED
:100670000027A1697A1902EB0900081AA061207805
:10068000C00602D42046AFF30080002608E0D4E97B
:1006900001211AF806009047206A401C761C20624F
:1006A0004E45F4DB2078C0060AD52046AFF3008023
:1006B00006E0D4E9012130209047206A401C2062E6
:1006C000381EA7F10107F4DC07E0D4E9012118F88E
:1006D00005009047206A401C2062281EA5F10105F4
:1006E000F3DC2046AFF300802078000602D502201C
:1006F000BDE8F0870120FBE770472DE9FF4F0C466E
:100700001E464FF0FF378BB0D2E90001DDF8608064
:100710000A908A46C1F30A5505B93D4600210846AC
:100720004FF00000BAF1000F00F4400005DA00EBD2
:1007300080004FF4400101EA50004FEA9059B9F1AE
:10074000010F00DDB9460A9850EA4A000ED044F67F
:100750001050A5F2FF3545432F14B8F1000F1ED0FD
:100760007542291E1EDDC9F100021CE0B8F1010F1F
:100770004FF0000001D0302103E0F24305E02154A6
:10078000401CB042FBDB30460022002121540B9973
:10079000C1F80880C1E900200FB0BDE8F08FBD1B93
:1007A0006D1CDEE74A4600DA694206A800F0D0FE7A
:1007B00006AB93E8070003AB83E8070050460A99AD
:1007C00001F013FA8DE80700A0F500501F380090E3
:1007D0000398002D09DD42F21F014A46084403A98F
:1007E0000390684601F09DFC08E0A0F500504A46E1
:1007F0001F3803A90390684601F0BBFC8DE8070091
:100800000004000C03D04FF0FF30410800E0104618
:10081000B8F1000F03D00022009215461EE0751EAD
:1008200005D400F04DFC303262556D1EF9D5B3464B
:100830000122084302D000227F1C04E020783028E7
:1008400001D100227F1E002A099786D01DE0112DBC
:1008500007DA00F035FC303262556D1C50EA0102B7
:10086000F5D1084302D00098C8B10EE00021681EFF
:1008700005E0235C625C63542254401E491C8142A3
:10088000F7DBAB46A81B401E0990002004F80B00C4
:100890000B98099AC0F80880C0E9002B7CE7112664
:1008A0004FF0000859E72DE9F04F88460446D21D65
:1008B00022F0070191B0D1E90001CDE90A0102F06F
:1008C000D2FD02460B98C00F01D02D2007E0206812
:1008D000810701D52B2002E0202101EAC000032A74
:1008E000099001D0072A05DB03464146204600F067
:1008F00035FC0BE12078800601D5E06900E0062098
:10090000B8F1650F814606D0B8F1660F18D0B8F17E
:10091000670F70D131E00020B9F1110F009001DBB9
:10092000112301E009F101030AAA01A90CA8FFF7AC
:10093000E4FEDDE90C70002609F10105834647E07D
:1009400001204B4600904FF000470AAA01A90CA8CD
:10095000FFF7D3FEDDE90DB00C995D46002610B916
:1009600009F101000D18B9EB050003D4C0F1FF3601
:1009700009F10105A5EB09002BE0B9F1010F01DA3E
:100980004FF001090020B9F1110F0090484601DD38
:10099000112300E003460AAA01A90CA8FFF7ADFE47
:1009A000DDE90C704D4600268346207800070AD406
:1009B000AB4500DA5D4601A8012D04DD411911F8AF
:1009C000011C302907D04F4502DA17F1040F04DA71
:1009D000012082460FE06D1EEEE7002F02DCED1BCA
:1009E0003E4403E0781CA84200DD7D1CB81B00F1EA
:1009F000010A4FF000472078000703D4AA4501DB25
:100A00004FF0FF3A0021B7F1004F0DF143088DF888
:100A1000431024D002202B23002F01DA7F422D2304
:100A20000A21021EA0F1010000DC5FB197FBF1FC7E
:100A300097FBF1F201FB1C7C17460CF1300C08F817
:100A400001CDEEE7A8F1010003702188090501D569
:100A5000452100E06521A0F1010800F8011C09987A
:100A60000FA9A1EB0807FF1D00B10120411901EBFF
:100A7000EA70A1693844081A401EA0612078C006B7
:100A800002D42046AFF30080099828B1D4E90121AF
:100A90009047206A401C20622078C00622D520465C
:100AA000AFF300801EE0002E04DBB34502DD01A899
:100AB000805D00E03020D4E901219047206A401C8D
:100AC0002062761CAAF101005FEA000A0AD100F058
:100AD000EFFAC0680168405CD4E901219047206AC0
:100AE000401C2062281EA5F10105DCDC07E0D4E9EA
:100AF000012118F8010B9047206A401C2062381E23
:100B0000A7F10107F3DC2046AFF30080032011B00A
:100B100043E6000001694A1C02610878704700B58D
:100B20008FB0CDE901310021059105497944CDE926
:100B3000031011466846FFF735FC0FB000BD0000FA
:100B4000E5FFFFFF0A6802F8010B0A60704710B565
:100B5000436913B1AFF3008001E0FFF7BDFB012053
:100B600010BD127800F124010A7000224A7001229F
:100B7000EDE711684FF0FF32E9E70000074B70B571
:100B80000D467B44FFF7CBFF0446284600F04EFDA0
:100B900010B14FF0FF3070BD204670BDD32C000067
:100BA0002DE9FF4F064689B00878FF2806D0491C7A
:100BB0002D2805D000244FF0000908E000200CE0AB
:100BC0000124F8E709EB8903491C00EB4309087885
:100BD000FF28F7D114B1C9F1000081461078002533
:100BE0002C46AA4629462D2801D02B2804D1521C78
:100BF0002D2813D0002082468B461078FF280FD076
:100C00004FF0000C0A21521CA5FB017804FB018166
:100C100005FB0C11C5194BEB0104EEE70120EAE7D7
:100C2000002108464FF00000BAF1000F02D000EB9F
:100C300080004008C0F38158B8F1010F01DD4FF08A
:100C4000FF380C9809EB000755EA040009D04FF073
:100C5000020917F5FA7F0BDA4FEACA70C6E900B04D
:100C600012E04FEACA70C6E900B00DB0BDE8F08FDF
:100C7000B7F5FA7F0DDDF0487844D0E90010C6E9F9
:100C8000001040EACA70706000F016FAC0F80090D8
:100C9000EBE7391E02DAC8F1000200E0424600DA52
:100CA000794206A800F054FC06AB93E8070003ABBA
:100CB00083E8070044F23E005BEA040100905846D6
:100CC00004D144F21E012C465D460091210C09041A
:100CD000014306D10099240444EA15442D04103937
:100CE000009104F07F41014306D10099240244EAB7
:100CF00015642D020839009104F07041014306D1BA
:100D00000099240144EA15742D01091F009104F093
:100D10004041014306D10099A40044EA9574AD0016
:100D2000891E009104F00041084304D100986D1918
:100D30006441401E009042466846002FCDE90145BF
:100D400003A902DD01F029FA01E001F0FEF9BAF190
:100D5000000F04460D4601D084F0004440F2FF77B6
:100D600024F00040284303D0C4F30A50B84212D103
:100D700000F0A2F9C0F80090C4F30A50B8420AD1BA
:100D8000AE487844D0E90010C6E9001004F00041F4
:100D90000843706069E7C6E9005466E72DE9FF4F34
:100DA0001F464FF0000A4FF0FF38454691B0D7E993
:100DB0000146CDF83CA000F07BF9C0680168405CBA
:100DC0001090B96912986D1C8847396A8146884726
:100DD0000028F6D1B9F1FF3F0AD0002E24F4D064E8
:100DE00011DDB9F12B0F08D0B9F12D0F0BD102E0B5
:100DF000404615B03AE744F48064B96912986D1C16
:100E00008847761E8146600504A901D52D2000E0A3
:100E10002B20002E01F1010B0DF130088DF8100090
:100E20003FDDB9F1690F08D0B9F1490F05D0B9F12B
:100E30006E0F02D0B9F14E0F1CD13B4601A80095B0
:100E400080E85002DDE912126FF0020003F0AEFB01
:100E5000C11CCED10EE0B96912986D1C884781463D
:100E60001398761E44F4007405600F98401C002E01
:100E70000F9016DDB9F1300FEDD0B9F1780F02D037
:100E8000B9F1580F0DD10F9801280AD13B46CDE991
:100E90000054DDE91212001F029603F085FBC11C0D
:100EA000A7D1109989453ED144F0800406E01399FA
:100EB000681CAAF1010A44F400740860B9696D1C49
:100EC0001298761E884730288146F0D02BE0109982
:100ED000894505D1200603D4761E44F0800418E02D
:100EE000484602F0C7FB08B3761E0DF123018B457F
:100EF00044F4007408D2A9F130000BF8010B20066D
:100F000007D5AAF1010003E0200602D40AF101008E
:100F10008246A00502D51399681C0860B969129829
:100F20006D1C88478146002ED1DC53E0002E51DD38
:100F3000B9F1650F02D0B9F1450F4BD1A00549D5E4
:100F4000B9696D1C1298761E24F440748847002EEF
:100F500081460CDD2B2804D0B9F12D0F07D144F4C4
:100F60008074B96912986D1C8847761E8146E00529
:100F700001D52D2100E02B2108F8011BCDF80080C0
:100F800021E0761E0DF13901884544F400740CD23D
:100F9000A9F1300010F0FF0088F8000002D100999C
:100FA000884509D908F1010806E0E00501D5244883
:100FB00001E042F20F708246B96912986D1C8847B1
:100FC000814613980560002E04DD484602F052FB6E
:100FD0000028D6D1F96912988847FF2053468BF82C
:100FE000000088F8000000200A900B9004AA0CA9C9
:100FF0000AA8FFF7D5FDA00502D46FF00100F8E6BE
:1010000014F0240F0AD0E00714D13868DDE90A1281
:10101000031D3B600068C0E900120BE00AA96846A6
:1010200002F0C2FAE00705D13868009A011D396064
:10103000006802602846DCE62C3A000022390000F5
:10104000F1D8FFFF02681144137801601846704719
:10105000D160054979445161044979441162002104
:101060001161114600F0BAB8EDFFFFFFED0000007E
:10107000426842B1016811F8013B23B1521EC0E938
:101080000012184670470121C160881E70474268EF
:101090005AB1C368016843B983688B4205D0491EC1
:1010A000521CC0E90012002070474FF0FF3070471B
:1010B00000487047300600200048704710060020A6
:1010C00030B5B0F10A024FEA900E71F100034EEA1A
:1010D000817EB0EB0E0061EB91014FEA101E4EEAEB
:1010E000017E10EB0E0041EB11114FEA102E4EEA7B
:1010F000016E10EB0E0041EB11214FEA104E4EEA4B
:10110000014E10EB0E0041EB1141401841F100017E
:101110004FEAD00040EA41704FEAD10110EB800560
:101120004FEA810444EA907444EB01046D1944EBE6
:101130000404521BA3414FF0000348BF0A3200D5FC
:1011400030BD401C41F1000130BD10B5044600F037
:101150009BFA0068005D00F0010010BD2DE9F04130
:101160001F46044603260168072A01F4006004DBD9
:1011700008B116A505E016A503E008B115A500E025
:1011800015A521F010002060A069C01EA0610FB15C
:10119000401EA0612046AFF300804FB1D4E9012189
:1011A00038469047206A401C2062C01C206206E03E
:1011B000206AFAE7D4E9012115F8010B9047761E61
:1011C000F8D22046AFF30080BDE8F0814E414E00DA
:1011D0006E616E00494E4600696E66002DE9F34F60
:1011E0004FF0000A0C4656468DB001200C9001F1DC
:1011F0000C000B9062690B9801219047051E2DD0C1
:10120000252D2CD0216A8847C0B162690B98012135
:101210009047216A88470028F7D16269411E0B98E0
:10122000904700E0761CA1690D988847216A88479D
:101230000028F7D1E1690D988847DBE7A1690D988F
:101240008847A842074601D1761CD3E7E1690D988B
:1012500088477F1C02D1BAF1000F6FD06BE1626941
:101260000B9800273D46394690472A2804D16269E9
:101270000B98012190470125DFF8D08262690B9815
:1012800001219047A0F130010A290AD24745E5DC47
:1012900007EB870100EB4107303FDFD445F0100535
:1012A000ECE7E90601D46FF000476C280AD04C281F
:1012B00014D0682815D06A280DD074281CD07A283C
:1012C0001AD01DE062690B98012190476C2802D06A
:1012D00045F0040514E045F002050DE045F0200559
:1012E0000AE062690B9801219047682802D045F016
:1012F000080505E045F4006562690B9801219047F7
:10130000C4E9015765283DD019DC58287AD00CDC97
:10131000452837D004DC252826D041289ED131E04D
:1013200046282FD0472899D12CE05B2877D0612818
:1013300028D063287CD0642823D15AE0F6E06F28B7
:1013400048D008DC66281DD067281BD0692821D02A
:101350006E2816D127E0702845D0732868D07528EC
:1013600047D078280DD14DE0A1690D9888472528F0
:1013700005463FF469AFE1690D9888476D1C3FF45D
:101380006AAFD8E00D9923466A466FF0010003F07A
:1013900009F9C5E045F0400023464FF000026060C7
:1013A000A80736D43EE0E8077FF447AF2068011D68
:1013B00021600068290501D506701BE7290701D5C2
:1013C000068017E7A90703D5F117C0E9006111E707
:1013D00006600FE745F0400023464FF008026060CA
:1013E000A80716D41EE040F60E0125EA0100606051
:1013F00016E045F0400023464FF00A026060A8075F
:1014000007D40FE045F040006060A80708D52346E8
:1014100010220D996FF00100AFF3008080E007E02B
:10142000102223460D996FF00100AFF3008077E0A2
:101430004FF0000963284F46C8464B46CB4602D0C2
:101440005B2806D038E0E80601D40120A06001271F
:1014500032E06269D4F80CB00B98012190475E2805
:1014600007D14FF0010949466269D4F80CB00B98D6
:101470009047216939B900210A4603AB43F821207E
:10148000491C0829FADBD8B3216949B308F10108DE
:1014900062690B98012190475D28F4D1B9F1000FE2
:1014A00009D0002003A951F82020D24341F8202080
:1014B000401C0828F7DB03AB2069002820794FEA9D
:1014C00040701ED05B462246CDF80080CDE90197E2
:1014D0000D9900286FF0010020DAAFF300801FE0C3
:1014E000C11703AA00EBD1614B1121F01F0102EBE0
:1014F0008302411A13680120884003431360C7E741
:1015000019E00D99224600286FF00100009702DAD9
:10151000AFF3008004E0AFF3008001E0AFF30080A0
:1015200000280ADA401C06D10C9820B14FF0FF3099
:101530000FB0BDE8F08F5046FAE7E90701D10AF194
:10154000010A064400200C9054E60000CCCCCC0CE0
:101550002DE9F047814616468AB0334878440DC8D5
:101560008DE80D0030487844801C03AC0DC884E839
:101570000D0041F69B300844372190FBF1F290FBBF
:10158000F1F5A5F1800501FB12041B3C02D5644274
:10159000012000E00020DFF890A080460027FA44F8
:1015A000AAF1BE0A0DE0E00709D03246684607EB13
:1015B00047010AEB810100F0DCFD8DE807006410B3
:1015C0007F1C002CEFD1184F7F44AC3F18E0E80798
:1015D00014D007EB04100DF1180A90E80E008AE809
:1015E0000E00C068F04201D198190890324606A951
:1015F00003A800F0BEFD03AB83E807006D10641C78
:10160000002DE4D132466946B8F1000F03A802D09C
:1016100000F087FD01E000F0ACFDC9E90001C9F868
:1016200008200AB0BDE8F08710310000007B00F010
:101630008000704700487047100600207546FFF78D
:10164000F9FFAE4605006946534620F0070085467F
:1016500018B020B5FEF70EFEBDE820404FF00006A2
:101660004FF000074FF000084FF0000B21F007018A
:10167000AC46ACE8C009ACE8C009ACE8C009ACE8CD
:10168000C0098D467047000010B5FFF711FD001D21
:1016900010BD00BF0527000010B5FFF70DFD006865
:1016A00010BD10B50446FFF707FD046010BD000033
:1016B0002DE9FF4F1F464FF03C0987B04FF0004225
:1016C000DDE9141001F10108DDF858A002EA4050EC
:1016D0000390002005908346054604460490B969AE
:1016E000461E08988847AAF1010A0290BAF1000F35
:1016F0003BDD02982E2815D0102100F060FA00285A
:101700002EDB4FF0010B0599014317D0B9F1000F03
:101710000BDB4A46C11700F03FFA05430C43A9F121
:10172000040905E0012004900BE008B145F0010533
:1017300001200590049820B9361D02E0049800B1FC
:10174000361FB969089808F101088847BBF1000FF6
:10175000AAF1010A0290C9D00999C1F80080C5E731
:101760000298702808D0502806D0F9690898884750
:10177000BBF1000F14D04FE0002002900120BBF11C
:10178000000F049009D0B969089808F1010888474A
:10179000AAF10109B9F1000F07DCF9690898884737
:1017A0006FF001000BB0BDE8F08F2B2804D02D287E
:1017B0000CD14FF0FF300490B969089808F1010886
:1017C0008847A9F10109B9F1000FE6DD411CE4D019
:1017D0000A2100F0F4F90028DFDB029908F1010882
:1017E00001EB810100EB41000290B969089888473C
:1017F0000A2100F0E4F9099AA9F10109B9F1000FF1
:10180000C2F8008001DD0028E7DAF9690898884706
:101810000499029800FB016655EA040004D004F024
:101820004041090002D006E0039898E0A40044EA91
:101830009574AD00B61E04F00041080002D16D1988
:101840006441761E159810F0240F03D04FF00B0959
:101850005C4803E04FF028096FF07D008246564552
:1018600007DAAAEB06018944B9F1410F01DD4FF017
:10187000410901200021A9F1010200F08DF9024681
:1018800028400B462140084301D0012100E00021FF
:10189000501E029143F1FF3128402140084301D0FE
:1018A000012000E000200299834651EA0B014FD04D
:1018B000002108464FF00000039900F4400039B1C0
:1018C00000EB80004FF4400100EBD07001EA6000B3
:1018D0008015012802DD4FF0FF3000E013D0401CDE
:1018E00036D0029860B3BBF1000F0CD14A460120FC
:1018F000002100F051F928402140084301D0012087
:1019000000E00020E0B101204A46002100F044F947
:10191000034640190A4661412D1A8C4111D3B9F191
:10192000400F09DD159810F0240F02D0AAF13406FB
:1019300003E0AAF1170600E0761C00254FF00044F2
:1019400006E05B1E42F1FF3220EA030521EA0204B1
:10195000CAF10100B04206DA1B490398084301901E
:10196000002000900EE0039AC4F3D321E80A0A4352
:10197000164940EA44500A433146CDE90002684620
:1019800001F06EFE159810F0240F0BD01598C007CB
:1019900015D13868DDE90012031D3B600068C0E91D
:1019A00000120CE002A8694601F0FEFD1598C00780
:1019B00005D13868029A011D39600068026040460E
:1019C000F0E6000002FCFFFF0000F07F0000F03FA7
:1019D0002DE9FF4F92461D4685B04FF00041DDE9ED
:1019E000124BDDE914727F1E01EA4B50414940F071
:1019F000FF4940EA0108002122F020004928049113
:101A000002D04E2828D04CE03BA0012607C88DE824
:101A10000700A9690698641C88477F1E014606D402
:101A20001DF8060018B121F0200181420BD0E969B0
:101A300006988847032E34D0082E32D06FF001006C
:101A400009B0BDE8F08F761C032E01D0082EE0D13E
:101A5000601CCAF80000DCE7A9690698641C884786
:101A60007F1E2AD420F02000412826D1A96906989B
:101A7000641C88477F1E20D420F020004E281CD1F3
:101A8000A9690698641C88477F1E48F4002849F419
:101A90008009CAF8004001D4282806D0E9690698D0
:101AA00088475FEACB7012D022E0A9690698641CCF
:101AB00088477F1E01D4002803DAE9690698884721
:101AC000BCE72928F1D1641CCAF80040E9E71BF003
:101AD000240F07D028680499031D2B600068C0E913
:101AE000001805E02868021D2A600068C0F8009010
:101AF0002046A5E70000F07F494E46494E4954591B
:101B00000000000010B50446AFF300802046BDE899
:101B10001040FEF79BBB00004FF0013C50F8042B37
:101B200051F8043B9A4221D1A2EB0C03934313EAF0
:101B3000CC1317D150F8042B51F8043B9A4215D11D
:101B4000A2EB0C03934313EACC130BD150F8042BF4
:101B500051F8043B9A4209D1A2EB0C03934313EAD8
:101B6000CC13DBD04FF00000704700BFD01A01BA91
:101B7000B1FA81F101F0180122FA01F0CB40C1F174
:101B80002001DBB2C0B2C01A2CFA01F3D11A914382
:101B900011EAC311E6D17047B2F120030AD5C2F1B0
:101BA000200301FA02F120FA03F300FA02F041EAFD
:101BB0000301704700FA03F14FF0000070473A2824
:101BC00000D2303820F02002412A01D3A2F13700A0
:101BD000884201D34FF0FF307047000001491820C0
:101BE000ABBEFEE72600020070475FEA400C08BF6C
:101BF00091F0000F4FEA8C234FEAC12243EA515182
:101C00004FEA1C5018BF00F5F0404FEA300018BFF3
:101C100041F000415FEA6C5C00F02980BCF1FF3FBD
:101C200008BF40F080407047130C06BF12044FF00D
:101C3000100C4FF0000C130E04BF12020CF1080C34
:101C4000130F04BF12010CF1040C930F04BF920098
:101C50000CF1020CD30F04BF52000CF1010C114621
:101C60004FF00002A0F11F00A0EB0C00704711F034
:101C7000004F08BF704731F000413FF4D5AF0B0C67
:101C800006BF09044FF0100C4FF0000C0B0E04BF00
:101C900009020CF1080C0B0F04BF09010CF1040C34
:101CA0008B0F04BF89000CF1020CCB0F04BF49005D
:101CB0000CF1010CCCF12003A0EB0C0022FA03F391
:101CC00002FA0CF241EA030100F10100704720F032
:101CD0007F4C80EA030023F07F47ACEB070303F55A
:101CE0007C5300F0004003F1FF032DE980494FEAE7
:101CF000154B09B44FEA144325EA0B4E24EA034876
:101D00000FF2042606EB132749083E785FEA3202F9
:101D100003FB0667C7F5000707FB06F64FEA5437D3
:101D20004FEAD64606F1020607FB066CCCF1005CD2
:101D30004FEA1C472CEA074C07FB06F40CFB06F5A0
:101D400004EB15464FEA961634BF00204FF00040D2
:101D50004FEAD13706FB07FC4FEA1C4C0CFB0BF794
:101D6000D21B03FB0CF761EB07010CFB0EF7B0EB8A
:101D7000074072EB17420CFB08F734BFA2EB074297
:101D8000B2EB074261EB17414FEA0C444FEA91076F
:101D900006FB07FC4FEA1C4C0CFB0BF7B0EBC740F3
:101DA00072EB573203FB0CF734BFA2EBC742B2EB26
:101DB000C74261EB57310CFB0EF7B0EBC70072EB7B
:101DC00057720CFB08F734BFA2EBC702B2EBC70295
:101DD00061EB5771039F4FEA816141EA921104EB75
:101DE000CC044FEAD1374FEA826206FB07FC42EA95
:101DF00090124FEA80604FEA1C4C0CFB0BF7D21B91
:101E000003FB0CF761EB07010CFB0EF7B0EB07408F
:101E100072EB17420CFB08F734BFA2EB0742B2EBA0
:101E2000074261EB17414FEA8C554FEA910704EBEB
:101E30009C2406FB07FC4FEA1C4C0CFB0BF7B0EB99
:101E4000C74072EB573203FB0CF734BFA2EBC7421B
:101E5000B2EBC74261EB57310CFB0EF7B0EBC7009A
:101E600072EB57720CFB08F734BFA2EBC702B2EB60
:101E7000C70261EB577115EB4C254FEA816141EACE
:101E800092114FEA82624FEAD13742EA901206FB82
:101E900007FC44F100044FEA80604FEA1C4C0CFB45
:101EA0000BF7D21B03FB0CF761EB07010CFB0EF7E2
:101EB000B0EB074072EB17420CFB08F734BFA2EB04
:101EC0000742B2EB074261EB174115EB1C154FEAD5
:101ED000813141EA92414FEA823242EA90424FEA2E
:101EE00080304FEA0C7644F1000448EA03434EEA9E
:101EF0000B484FF0000EB2EB080C71EB030724BF48
:101F0000624639464EEB0E0E4FF0000B0018524160
:101F100049414BEB0B0BB2EB080C71EB03077BF168
:101F2000000B24BF624639464EEB0E0E4FF0000BFD
:101F30000018524149414BEB0B0BB2EB080C71EB13
:101F400003077BF1000B24BF624639464EEB0E0EB1
:101F500051EA020718BF46F0010616EB0E7655F15E
:101F6000000254F1000103D5BDE88901BDE80088F5
:101F7000BDE88901BDE80048B619524141EB0101B5
:101F8000A3F10103704780807F7E7D7C7B7A797826
:101F9000777676757473727171706F6E6E6D6C6C2E
:101FA0006B6A6A69686867666665646463636261D0
:101FB0006160605F5F5E5E5D5D5C5C5B5B5A5A5951
:101FC00059585857575656555555545453535252BD
:101FD0005251515050504F4F4F4E4E4D4D4D4C4C15
:101FE0004C4B4B4B4A4A4A4949494848484747475E
:101FF000474646464545454444444443434343429B
:10200000424242414141000046EA0646A3F5705370
:102010004FEA164646EA42564FEAD22242EA415277
:1020200010B54FEAD121A3F1010300F017F820F019
:10203000004000F1010C00F0004701EB0050114698
:10204000BCF5006F40EA070000D210BD02484FF017
:10205000000140EA070010BD0000F07F002B26D4ED
:10206000770021D01CB54FEA370703B44FF01000BA
:102070004FF010014FF000000FBCBDE810400BF115
:10208000010BBBF1010F08BF5FEA170722BF12F176
:10209000010211F101014FF0004143F1000300F092
:1020A000004043EA00007047F9D35708DAE746EAF0
:1020B000064613F1400F4FEA16461FDD13F1200FBD
:1020C000DFBF16430A46002120335B42C8D0C3F16C
:1020D000200746EA064602FA07F74FEA164646EA9E
:1020E0000706C3F1200722FA03F201FA07F721FAE3
:1020F00003F14FF0000342EA0702B1E746EA0206A5
:1021000046EA06464FEA164646EA0106BCBF46EADC
:102110000646360C4FF000034FF000024FF000016E
:102120009EE72DE9C048934630B491E8380007C8CF
:1021300031EA400C48BF34EA430C03D5FFF7C7FD32
:10214000FFF78CFFF0BCBDE800882DE9C04893463E
:1021500030B491E8380007C831EA400C48BF34EA8F
:10216000430C03D5FFF7B3FDFFF74EFFF0BCBDE80E
:1021700000882DE9C048934630B491E8380007C87C
:1021800010F0804F08BF13F0804F03D100F019F812
:10219000FFF764FFF0BCBDE800882DE9C048934616
:1021A00030B491E8380007C810F0804F08BF13F032
:1021B000804F03D100F005F8FFF726FFF0BCBDE823
:1021C000008820F07F4780EA030023F07F4C07EB74
:1021D0000C03A3F57C5300F00040A3F1FE0392F042
:1021E000000F00F0B38095F0000F00F077802DE92C
:1021F00001494FEA11404FEA144621EA004800FB2A
:1022000006FC24EA064708FB06F607FB08F800FB75
:1022100007F718EB06484CEB164C4FEA124B18EB3D
:1022200007484FEA15464CEB174022EA0B4E0BFBD2
:1022300006FC25EA06470EFB06F607FB0EFE0BFB27
:1022400007F71EEB064E4CEB164C4FF000061EEB4C
:10225000074E4CEB174B18EB0B0840F1000018EB46
:102260000E0B58EB000840F100008F1A4FF00001F0
:102270003CBFC943661B14BFB5EB040C00213CBF37
:10228000C943F61B4FEA17444EEA8E0E27EA04456F
:102290004FEA1C4704FB07622CEA074C05FB07F7D3
:1022A0000CFB05F604FB0CFC16EB074642EB174251
:1022B00016EB0C4642EB1C421BEB060658EB0202E7
:1022C000414146EA9E0601D5BDE80189B619524151
:1022D00041EB0101A3F10103BDE801894FEA144577
:1022E0004FEA114724EA054621EA074C05FB07F4AB
:1022F00006FB07F70CFB06F105FB0CFC11EB074195
:1023000044EB17444FEA124711EB0C4144EB1C44D9
:1023100022EA074C05FB07F206FB07F70CFB06F663
:1023200005FB0CFC16EB074642EB174216EB0C467E
:1023300042EB1C456A1854F1000148BF7047B619BA
:10234000524141EB0101A3F10103704795F0000FE9
:1023500037D04FEA11424FEA144721EA024624EAF5
:10236000074C02FB07F106FB07F70CFB06F402FB28
:102370000CFC14EB074441EB17414FEA154714EBF3
:102380000C4441EB1C4125EA074C02FB07F506FB18
:1023900007F70CFB06F602FB0CFC16EB074645EBB9
:1023A000174516EB0C4645EB1C42121951F1000182
:1023B00048BF7047B619524141EB0101A3F1010337
:1023C00070474FEA14454FEA114724EA054621EACF
:1023D000074C05FB07F106FB07F70CFB06F24FF075
:1023E000000605FB0CFC12EB074241EB174112EB18
:1023F0000C4251EB1C4148BF7047921841EB010160
:10240000A3F10103704700001CB50121084600F04C
:102410009BF94FF48050009001208DF804000320B8
:102420008DF8050000208DF8060001208DF80700CA
:102430006946034800F008F80120024908601CBD05
:1024400000000240B0024042F0B50A4600210023DD
:10245000002400BF3DE0012505FA01F3156805EAF7
:1024600003049C4234D105684F000326BE40B543A7
:10247000056015794E00B54006683543056015794D
:10248000012D02D01579022D16D185684F00032643
:10249000BE40B543856055794E00B54086683543EA
:1024A0008560456801268E40B5434560456896794C
:1024B0008E40B6B235434560C5684F000326BE4026
:1024C000B543C560D5794E00B540C6683543C56093
:1024D000491C1029BFD3F0BDF0B5002300244D07DF
:1024E000ED0E02FA05F3CE1000F1200555F8265046
:1024F0004E07F70E0F26BE40B543CF1000F1200661
:1025000046F82750CE1000F1200555F8265045EA30
:102510000304CE1000F1200545F82640F0BD000070
:102520004CF6CC4001490860704700000030004084
:102530004AF6AA20014908607047000000300040B8
:102540000149486070470000003000400149886040
:1025500070470000003000400149086070470000EB
:10256000003000401CB50121042000F0EDF84FF4CC
:102570008060009001208DF8040002208DF8050095
:1025800000208DF806008DF8070069460348FFF724
:102590005BFF0120024908601CBD000000080240EA
:1025A000A802414270B5002100230F22C4781CB359
:1025B000174C246804F4E064C4F5E064C4F3072114
:1025C000C1F10404E3B20A4144789C40E1B284784A
:1025D000144021430C07210E0E4C057861550478F8
:1025E00004F01F050124AC4005786D11AD0005F124
:1025F000E025C5F8004109E0047804F01F05012436
:10260000AC40054D0678761145F8264070BD0000B7
:102610000CED00E000E400E080E100E0024901434D
:10262000024A1160704700000000FA050CED00E05E
:1026300000B58BB00121022000F096F801210420A2
:1026400000F082F84FF48070019002208DF80800AD
:1026500003208DF8090000208DF80A0001A9154813
:10266000FFF7F2FE022208211248FFF735FF632030
:10267000099042F2CF00ADF820000020ADF8220012
:1026800008A90D4800F0F4FA6020ADF80C00012014
:10269000ADF80E00642005900020ADF8180003A9E5
:1026A000054800F055FA0121034800F02AFA0BB062
:1026B00000BD0000000802400004004000B58BB0DF
:1026C0000121042000F050F80121082000F03CF81E
:1026D0004FF40040019002208DF8080003208DF88F
:1026E000090000208DF80A0001A91548FFF7ACFE8B
:1026F00002220F211248FFF7EFFEC720099042F295
:10270000CF00ADF820000020ADF8220008A90D4848
:1027100000F0AEFA6020ADF80C000120ADF80E001C
:10272000642005900020ADF8180003A9054800F0CA
:102730005FFA0121034800F0E4F90BB000BD00008E
:10274000000C02400008004029B1064A126802430A
:10275000044B1A6004E0034A12688243014B1A607A
:10276000704700003038024029B1064A126802431F
:10277000044B1A6004E0034A12688243014B1A605A
:10278000704700004038024029B1064A12680243EF
:10279000044B1A6004E0034A12688243014B1A603A
:1027A00070470000443802400348006840F08070E1
:1027B000014908607047000074380240F0B50021FC
:1027C00000220024022500260223324F3F6807F032
:1027D0000C0121B1042905D0082937D105E02E4F7D
:1027E000076036E02D4F076033E02A4F3F1F3F68F8
:1027F000C7F38056274F3F1F3F6807F03F036EB176
:10280000264FB7FBF3F7DFF88CC0ACF1040CDCF813
:1028100000C0CCF3881C07FB0CF40CE01E4FB7FB88
:10282000F3F7DFF870C0ACF1040CDCF800C0CCF3B7
:10283000881C07FB0CF4174F3F1F3F68C7F3014785
:102840007F1C7D00B4FBF5F7076002E0124F0760C4
:1028500000BF00BF0F4F3F6807F0F0010909104F9C
:102860007A5C0768D74047600A4F3F6807F4E05139
:10287000890A0B4F7A5C4768D7408760054F3F68ED
:1028800007F46041490B064F7A5C4768D740C76040
:10289000F0BD0000083802400024F40000127A0065
:1028A0003600002010B501460022002300204A1106
:1028B000012A02D10A4C236808E0022A03D1084CFD
:1028C0007034236802E0064C7434236801F01F0260
:1028D000012494401C400CB1012000E0002010BDF8
:1028E000003802400CB50020019000903448006888
:1028F00040F480303249086000BF3148006800F47D
:10290000003000900198401C0190009818B901987F
:10291000B0F5A04FF1D12A48006800F4003010B1A2
:102920000120009001E0002000900098012846D18D
:1029300023484030006840F0805021494031086011
:102940002048006840F440401E4908601C48083098
:1029500000681B49083108600846006840F40040E0
:1029600008600846006840F4A05008601648091F37
:102970000860081F006840F08070091F086000BFF1
:102980000F48006800F000700028F9D040F2057090
:102990000E4908600A480830006820F00300084922
:1029A000083108600846006840F00200086000BF77
:1029B00003480830006800F00C000828F8D10CBD6E
:1029C000003802400070004008544007003C0240BC
:1029D00010B51548006840F47000134908601348AA
:1029E000006840F001001149086000200F490831DB
:1029F00008600E4800680E4908400C4908600D4800
:102A0000091D0860081F006820F48020091F086065
:102A1000002006490C310860FFF764FF4FF00060AA
:102A200001498039086010BD88ED00E0003802409F
:102A3000FFFFF6FE1030002410B50121084800F019
:102A40006CF860B10748006880F001000649C1F8E1
:102A5000A802FFF76DFD0121014800F04FF810BDFD
:102A600000000140A80241420000414210B501218E
:102A7000084800F052F860B10748006880F0010093
:102A80000649C1F8A802FFF753FD0121014800F0F3
:102A900035F810BD00040040A88242420080424246
:102AA0001FB501210846FFF76FFE41F28730029003
:102AB00044F29F10ADF804000020ADF8060001A913
:102AC0000D4800F0D5F8012211460B4800F036F809
:102AD00019208DF8000002208DF8010003208DF8E8
:102AE000020001208DF803006846FFF75BFD01211D
:102AF000014800F006F81FBD00000140CA430282F1
:102B0000704721B1028842F00102028004E002888D
:102B10004FF6FE731A400280704730B5024600201F
:102B200000230024158A05EA0103958905EA0104BA
:102B300013B10CB1012000E0002030BD1AB183892F
:102B40000B43838102E083898B43838170470000BC
:102B500070B5002400220023058C4FF6FF66354037
:102B60000584028C8388848B4FF68F752C404FF63A
:102B7000FC752C400D882C434FF6FF552A408D895B
:102B80004FF6FF7606EA05252A434D8806EA052515
:102B90002A43154DA84202D0144DA8421DD14FF230
:102BA000FF752A40CD894FF6FF7606EA05252A43B0
:102BB0004FF6FF352A408D8806EA05252A434EF652
:102BC000FF752B404DF6FF752B400D8A06EA051563
:102BD0002B434D8A06EA05152B43838084838D6839
:102BE000C563028470BD0000000001400004014084
:102BF00070B5002200230024058C4EF6FF76354088
:102C00000584038C8488828B48F6FF752A404FF632
:102C1000FF452A400D884FF6FF7606EA05252A4330
:102C20004DF6FF752B408D8906EA05352B434D88FF
:102C300006EA05352B430A4DA84202D0094DA842A9
:102C400008D14BF6FF752C400D8A4FF6FF7606EA49
:102C500085152C43848082838D680564038470BD50
:102C60000000014000040140C163704701647047E7
:102C700000220288184B98420ED0184B98420BD075
:102C8000B0F1804F08D0164B984205D0154B9842B2
:102C900002D0154B984204D14FF68F731A404B88DF
:102CA0001A43124B984207D0114B984204D04FF66A
:102CB000FF431A400B891A4302804B68C3620B889A
:102CC0000385054B984202D0044B984201D18B7A80
:102CD0000386012383827047000001400004014005
:102CE0000004004000080040000C004000100040BC
:102CF0000014004010B540F22551174800F0F0FADA
:102D0000012828D1144800F0A5FB1449144A126880
:102D1000885413480068401C114908600846006840
:102D2000401E0E49085C0A2810D10D480068801E1C
:102D3000085C0D280AD10BA0FDF7AEFA4FF48061B4
:102D40000648FDF734FC00200549086040F2255193
:102D5000014800F09DFA10BD00100140480100201C
:102D60002C00002025730D0A0000000010B588B06B
:102D7000044601210846FFF7E7FC01211020FFF778
:102D800003FD4FF4C060019002208DF8080003207D
:102D90008DF8090000208DF80A0001208DF80B0045
:102DA00001A91C48FFF750FB072209211948FFF72A
:102DB00093FB07220A211748FFF78EFB039400209C
:102DC000ADF81000ADF81200ADF81400ADF8180021
:102DD0000C20ADF8160003A90F4800F0D1FA01222B
:102DE00040F225510C4800F0A5FA25208DF81C0072
:102DF00000208DF81D0001208DF81E008DF81F00A9
:102E000007A8FFF7CFFB0121034800F050FA08B0F4
:102E100010BD0000000002400010014010B540F25B
:102E20002551724800F05CFA012878D16F4800F013
:102E300011FB6F496F4A126888546E480068401C45
:102E40006C49086008460068401E6949085C0A2809
:102E50007ED168480068801E085C0D28F8D10222E7
:102E600065A16348FDF758FB20B914216348FFF7BB
:102E7000FBFEAEE0032262A15D48FDF74DFB20B9E9
:102E800000215E48FFF7F0FEA3E00F225DA1584845
:102E9000FDF742FB10B900F057FE9AE00B225DA14E
:102EA0005348FDF739FB18B901205D49088090E0CF
:102EB0000C225CA14E48FDF72FFB18B900205849A1
:102EC000088086E007225BA14948FDF725FB30B961
:102ED0005A48006880F001005849086079E00922EA
:102EE00057A14348FDF718FBD0B99FED580B53ECA1
:102EF000102B584890ED000B51EC100B01F08CF8A2
:102F000067D29FED550B53EC102B524890ED000B00
:102F100051EC100B00F088FF4E4A03C259E064E008
:102F200009224FA13248FDF7F7FAD8B99FED4F0BB0
:102F300053EC102B474890ED000B51EC100B01F0B7
:102F4000A5F946D29FED440B53EC102B414800E00D
:102F500046E090ED000B51EC100B01F0CDF93D4A2D
:102F600003C236E0072243A12148FDF7D5FAA8B9EC
:102F700042480068401D41490860084600686428CE
:102F800001DD642008603D4801681C48FFF76CFEC5
:102F90003A4801683AA0FDF77FF91AE007223BA101
:102FA0001348FDF7B9FAA0B934480068401F334907
:102FB000086008460068002801DA002008602F48F1
:102FC00001680E48FFF750FE2C4801682CA0FDF761
:102FD00063F980210648FDF7EAFA002005490860F8
:102FE00040F22551014800F053F910BD0044004063
:102FF000C8000020240000206F6E00000004004084
:103000006F6666006765742074656D7065726174C3
:10301000757265006765742064617461206F6E006D
:10302000020000206765742064617461206F666629
:103030000000000066616E7370696E001800002069
:1030400077656E6475206164640000000000000014
:103050000000444010000020000000000000F03F8D
:1030600077656E64752073756200000000000000D3
:1030700000003B4066616E2061646400280000200F
:1030800066616E3D25640D0A0000000066616E20D9
:103090007375620010B588B0044601210846FFF739
:1030A00053FB01214804FFF75FFB0C200190022035
:1030B0008DF8080003208DF8090000208DF80A0023
:1030C00001208DF80B0001A91B48FFF7BDF907226D
:1030D00002211948FFF700FA072203211648FFF7DB
:1030E000FBF903940020ADF81000ADF81200ADF824
:1030F0001400ADF818000C20ADF8160003A90F4815
:1031000000F03EF9012240F225510C4800F012F97E
:1031100026208DF81C0000208DF81D0001208DF860
:103120001E008DF81F0007A8FFF73CFA0121034895
:1031300000F0BDF808B010BD00000240004400409F
:1031400010B540F225511A4800F0CAF801282ED1D6
:10315000174800F07FF9C4B21648008800F4004018
:1031600000BBFE2C05D10120134908800020134923
:10317000088011480088A8B11148104909884454B2
:103180000E480088401C0D49088008460088082821
:1031900008DD0020084908800648008840F4004007
:1031A0000449088040F22551014800F071F810BD33
:1031B0000048004030000020340000203200002091
:1031C0004805002010B588B0044601210220FFF711
:1031D000BBFA01218804FFF7C7FA4FF44060019061
:1031E00002208DF8080003208DF8090000208DF8DA
:1031F0000A0001208DF80B0001A91C48FFF724F9F3
:1032000007220B211948FFF767F907220A211748FF
:10321000FFF762F903940020ADF81000ADF812003A
:10322000ADF81400ADF818000C20ADF8160003A995
:103230000F4800F0A5F8012240F225510C4800F09B
:1032400079F827208DF81C0000208DF81D008DF8DE
:103250001E0001208DF81F0007A8FFF7A3F9012128
:10326000034800F024F808B010BD0000000402403C
:103270000048004000BF0549098801F040010029CD
:10328000F9D00249091D088070470000004800403D
:1032900010B50022002340F66A14A14200D100BFFD
:1032A0000A1201249440A3B2DC43048010BD21B172
:1032B000828942F40052828104E082894DF6FF73D4
:1032C0001A408281704702460020B1F5007F00D18C
:1032D00000BF13880B400BB1012000E000207047B5
:1032E00070B50246002400230025002040F66A162F
:1032F000B14200D100BFC1F3421501F01F03012606
:1033000006FA03F3012D02D19689334006E0022D1F
:1033100002D1168A334001E0968A33400C1201260E
:1033200006FA04F41688344013B10CB1012000E011
:10333000002070BDF0B503460024002600250020C3
:1033400040F66A17B94200D100BF1846C1F34214D3
:1033500001F01F06012707FA06F5012C01D10C30F8
:1033600004E0022C01D1103000E014301AB10768DB
:103370002F43076002E00768AF430760F0BD00001D
:103380002DE9FF4705460E460024A14600BFA04692
:10339000B08900B100BF2C8A24F44054F088044363
:1033A0002C82AC8941F20C608443B0883189084397
:1033B000718908430443AC81AC8A24F44074B08919
:1033C0000443AC826846FFF7F9F92048854202D0F1
:1033D0001F48854202D1DDF80C9001E0DDF808902D
:1033E000A88900F4004040B109EBC90000EB0910C6
:1033F00031684900B0FBF1F707E009EBC90000EBC9
:10340000091031688900B0FBF1F76420B7FBF0F0D8
:1034100004012009642101FB1078A88900F4004010
:1034200040B1322000EBC800B0FBF1F000F0070023
:10343000044308E0322000EB08106421B0FBF1F0F7
:1034400000F00F0004432C81BDE8FF87001001400D
:103450000014014001468888C0F308007047C1F39A
:1034600008028280704703B401984100009850EA36
:10347000C12018BF04204A0D18BF40F0010040F2DF
:10348000FF72B2EB515F08BF40F00200012808BF95
:10349000052002B07047000030B540F2FF742DEDFA
:1034A000048BF0EE608A18EE901A85B0B0EE408A78
:1034B0009FED2B9B05468DED008B34EA115147D0D3
:1034C00053EC192B51EC180B00F06AFD40D02A4642
:1034D00051EC180B01F038F841EC180B18EE900A7B
:1034E0008DED008B34EA10501CD053EC192B51ECAD
:1034F000180B00F055FD2BD10220FEF7D2F800F09A
:1035000043F810EE901A18EE900A8DED020B8DED37
:10351000008B61F31E0003909DED020B05B0BDEC26
:10352000048B30BD0220FEF7BCF800F01DF810EE51
:10353000901A18EE900A8DED020B8DED008B61F361
:103540001E0003909DED020B05B0BDEC048B30BD59
:1035500005B0B0EE480AF0EE680ABDEC048B30BD51
:1035600000000000000000009FED050B10B553ECBB
:10357000102B51EC100B00F08BFD41EC100B10BD2B
:1035800000000000000000709FED050B10B553EC2B
:10359000102B51EC100B00F07BFD41EC100B10BD1B
:1035A000000000000000001030B504462DED048B33
:1035B00081B06A4691ED008B51EC180B00F060F978
:1035C00000989FED239B7E300090002821DC53EC77
:1035D000192B51EC180B00F0E3FC1AD0002140F637
:1035E00008004FF00000054651EC180B00F0EAFB14
:1035F00008EE100A40F6080005EA00014FF000004E
:10360000B5EEC08AF1EE10FA04BF0220FEF749F8C9
:1036100017E00098FF280EDB0220FEF742F853EC7B
:10362000192B51EC180B00F031FE8CBF9FED0A8A6C
:103630009FED0A8A05E051EC180B00F0C3FB08EE81
:10364000100A84ED008A01B0BDEC048B30BD00008F
:103650000000000000000000000080FF0000807FEC
:1036600010B5044690ED000B0846FFF715FF84EDFA
:10367000000B10BD30380A2801D20120704700200D
:103680007047000011E000214FF0E02211610B496A
:103690005161002191610521116100BF4FF0E021CE
:1036A000096901F480310029F8D0011EA0F101025E
:1036B00090B2E8D14FF0E022116170473F900200D4
:1036C00011E000214FF0E0221161A721516100219A
:1036D00091610521116100BF4FF0E021096901F4FA
:1036E00080310029F8D0011EA0F1010290B2E8D18A
:1036F0004FF0E0221161704710B52DED028B9FED68
:10370000490B53EC102B494890ED000B51EC100B7A
:1037100000F08AFB41EC180B454890ED000B53EC90
:10372000102B51EC180B00F077FC04D264214148B7
:10373000FFF79AFA73E09FED400B53EC102B3B48D8
:1037400090ED000B51EC100B00F06EFB41EC180BF0
:10375000374890ED000B53EC102B51EC180B00F098
:103760005BFC04D232213348FFF77EFA57E09FED2D
:10377000340B53EC102B2D4890ED000B51EC100B3B
:1037800000F052FB41EC180B294890ED000B53EC74
:10379000102B51EC180B00F03FFC04D214212548EB
:1037A000FFF762FA3BE09FED280B53EC102B1F480C
:1037B00090ED000B51EC100B00F036FB41EC180BB8
:1037C0001B4890ED000B53EC102B51EC180B00F044
:1037D00023FC04D20A211748FFF746FA1FE09FEDA9
:1037E0001C0B53EC102B114890ED000B51EC100BFF
:1037F00000F01AFB41EC180B0D4890ED000B53EC58
:10380000102B51EC180B00F007FC04D205210948DD
:10381000FFF72AFA03E000210648FFF725FABDEC7E
:10382000028B10BD000000000000144010000020BA
:1038300008000020000400400000000000001040CC
:103840000000000000000C400000000000000840E4
:10385000000000000000004070B504460D46A1B213
:103860000548FFF7FCFD00BF80210348FFF72BFD53
:103870000028F9D0204670BD001001400000000073
:1038800010B582B01446CDE900010023009A2360F0
:10389000194B21F0004098422ADA024328D0B0F5B3
:1038A000801FA8BF226810DA9FED150B53EC102B78
:1038B0009DED000B51EC100B00F0EAFBCDE900018F
:1038C0006FF0350221F0004022600F4B6FF31E5164
:1038D00003EB20501044206041F0FF5040F00050B6
:1038E00001909DED000B00BF02B051EC100B10BD1C
:1038F0009DED000BF8E700000000F07F00000000E5
:10390000000000000000504302FCFFFF2DE9FC47CF
:1039100005464FF000094FF48050009001208DF8CB
:10392000040003208DF8050000208DF8060001201A
:103930008DF8070069465348FEF786FD012052497D
:10394000086000205149C1F8B0021420FFF79AFE28
:1039500001204D4908602820FFF7B2FE4FF4805047
:10396000009000208DF8040003208DF80500002051
:103970008DF8060001208DF8070069464148FEF7E2
:1039800063FD00240AE0641C0120FFF799FEB4F5F2
:103990007A6F03D34FF0FF30BDE8FC873A48803898
:1039A00000680028EFD1002409E0641C0120FFF723
:1039B00087FEB4F5FA7F02D96FF00100ECE73248D8
:1039C000803800680028F0D0002409E0641C012041
:1039D000FFF776FEB4F5FA7F02D96FF00200DBE75D
:1039E0002948803800680028F0D1002637E04FF0E1
:1039F000000807272EE0002409E0641C0120FFF7DF
:103A00005FFEB4F5FA7F02D96FF00300C4E71E48E9
:103A1000803800680028F0D02320FFF751FE1A48B4
:103A200080380068A8B10120B84040EA080000F0E2
:103A3000FF08002408E0641C0120FFF741FE322C3F
:103A400002D96FF00400A7E70F488038006800280B
:103A5000F1D17F1E002FCEDA05F80680761C052EE8
:103A6000C5D3287869780844A9780844E9780844D7
:103A700000F0FF092879484502D06FF005008BE778
:103A8000002089E700000240B002404200004042AE
:103A900010B5FA20FFF7EEFBCA20FFF7EBFBC420BE
:103AA000FFF7E8FBC820FFF7EDFD1748008800F49A
:103AB0000040002826D01548807815490870134822
:103AC000C0780A2190FBF1F0124908701048007884
:103AD0000F4908700F480378084602780EA1134872
:103AE000FCF7E6FB124A13A11048FCF7F7FC0F495C
:103AF00014A0FCF7D1FB80210C48FCF758FD0020F6
:103B00000149088010BD0000300000204805002059
:103B10000000002001000020C4E3B5C4CCE5CEC203
:103B2000CEAA25642E25640D0A000000480000205E
:103B300008000020C4E3B5C4CCE5CEC2CEAA256CF3
:103B4000660D0A002573000010B592B00020109099
:103B50001190002410A8FFF7D9FE04460CBB3421B5
:103B600003A8FCF746FD9DF841009DF84010CDE903
:103B700000109DF843309DF842200CA103A8FCF7EB
:103B800097FB03A800F0E6F89DF8410000909DF82F
:103B900040309DF843209DF8421004A0FCF77CFBC8
:103BA00000BF0A20FFF76EFD12B010BDCEC2B6C82E
:103BB000A3BA25642E256420CAAAB6C8A3BA256470
:103BC0002E25640D0A00000010B545F25550FEF791
:103BD000C3FC0620FEF7B4FC4FF4BA70FEF7B6FC47
:103BE000FEF7A6FCFEF79CFC10BD000008B5002007
:103BF0000090052400252002FEF710FDFEF7B2FC20
:103C0000FEF702FCFEF74CFFFEF712FDFEF756FD35
:103C10004FF4E130FFF7AAF84FF4E130FFF73AFA3A
:103C20004FF41650FFF7CEFA2CA0FCF735FBFFF748
:103C3000CBFF7D20FEF736FE012805D12BA0FCF737
:103C40002BFBFEF7B1FD02E02DA0FCF725FB0021C8
:103C50003048FFF709F8FA20FFF70CFBC520FFF703
:103C600009FBBF20FFF706FB3220FFF70BFD34E016
:103C700029480088B8B1FFF70BFF2848007870B1D9
:103C800026480078FF280AD0FFF736FD244890ED3B
:103C9000000B53EC102B23A0FCF7FEFA03E00521E8
:103CA0001C48FEF7E1FFC820FFF7ECFC21461F4847
:103CB000FEF7DCFF1E48006860B10A2C01D0052C1D
:103CC00001D185F00105012D02D1601C84B201E013
:103CD000601E84B2C820FFF7D5FCC9E768656C6C2C
:103CE0006F20776F726C640D0A000000697764675B
:103CF00020696E69742073797374656D0D0A000014
:103D000073797374656D2073746172742072756E4B
:103D10000D0A000000040040020000200000002006
:103D20000800002025660D0A000000000008004081
:103D30001800002010B5044621460548FFF78FFB08
:103D400000BF80210248FFF7BEFA0028F9D010BD5D
:103D50000044004010B5044603E02078FFF7EAFF76
:103D6000641C20780028F8D110BD000010B500298F
:103D70000AD00878002807D005487844FDF7CCFE23
:103D8000002801D0002010BD0248784410BD00007A
:103D9000360900002E09000010B500290AD0087865
:103DA000002807D005487844FDF7B6FE002801D06A
:103DB000002010BD0248784410BD00002609000014
:103DC0001E09000021F00042A2F16052B2F5801FEE
:103DD00001F0004328BFD2F17F6C0BD95FEA001CD1
:103DE00043EAC20242EB507018BF704728BF20F070
:103DF00001007047B2F5801FBCBF184670474FEAFC
:103E0000410C1CF5001F02D2084600F064BB70B5DF
:103E100000F0E8F900000089FFF7F6BF4FF000401E
:103E2000A0F580007047000010B591EA030F48BF6D
:103E300083F0004300F16882841A71EB030C05D211
:103E4000121943EB0C03001B61EB0C01DFF824E1BA
:103E50004FEA1154A4EB135C1EEA430F18BF9EEA0D
:103E6000445F73D023EA0E03DCF1200E21EA0451F3
:103E700043F4801332D322FA0CFE10EB0E0023FA27
:103E80000CFE41EB0E01CCF1200E03FA0EFE10EBFE
:103E90000E0051F10001B1F5801FCCF1200E32D29D
:103EA00001EB045112FA0EF2BDE8104058BF704702
:103EB000401C38BF5FEA420218BF7047002814BF99
:103EC00020F0010041F100014FEA410313F5001F0A
:103ED00038BF7047A1F1C04100F0D2B9012A43EBCD
:103EE0000302ACF1200CDCF11F0E32BF4FF0000ECC
:103EF00023FA0CF310EB030041EB0451B4EB115F18
:103F0000D0D0A1EB045101F5801149085FEA3000DF
:103F100001EB04510ED350F1000038BF12FA0EFE2F
:103F200008D1BDE81040C9E7401C38BF5FEA420233
:103F3000CAD1C3E7BDE810404FEA410313F5001FA3
:103F400038BF7047A1F1C04100F09AB99EEA445FC2
:103F500008D011EA5E0FBDE8104004BF01F0004137
:103F600000207047BDE8104070B500F03BF900BF7D
:103F700064FBBE3E0000E0FF02494FF0000000F08D
:103F8000B1BA00BF0000F87F491058BFC1F14041ED
:103F90005B1058BFC3F140438B42EFF30080704782
:103FA00051EA030C17D41CF5801F58BFBCF5801FC5
:103FB00000F10680994218BF704708BF90427047D1
:103FC00007D711F5801F58BF13F5801F19D49942E8
:103FD0007047894270471CF5801F08D5BCF5801FCB
:103FE000F7D58B4218BF704708BF824270474FF425
:103FF000001C1CEB410F38BF1CEB430F01D28B425E
:10400000704770B500F0EEF8922449004FF000516F
:104010004FF08053FFF7B8BF51EA030C17D41CF5DB
:10402000801F58BFBCF5801F00F10680994218BF61
:10403000704708BF9042704707D711F5801F58BFDF
:1040400013F5801F19D499427047894270471CF5B7
:10405000801F08D5BCF5801FF7D58B4218BF70476D
:1040600008BF824270474FF4001C1CEB410F38BF61
:104070001CEB430F01D28B42704770B500F0B2F8D1
:10408000922449004FF000514FF08053FFF77CBF5E
:10409000DFF848C170B51CEA111E1EBF1CEA1315DB
:1040A0009EEA0C0F95EA0C0F00F06F8081EA030482
:1040B00023EA4C134EEAD47E21EA4C1141F48011DC
:1040C00043F48013AE44A1FB024CA0FB0365AEF1A8
:1040D0007F7E361955EB0C05A1FB034C4CF1000318
:1040E000A0FB021C16EB0C06654153F100030942CC
:1040F00018BF46F0010613F4007F0BD14FEA0331DD
:104100004FEA0530340341EA155140EA16506FF08A
:1041100003020AE04FEAC3214FEAC520F40241EA54
:10412000555140EA56506FF0020202EB2E4201EB6D
:10413000025585EACE710AD05FEA440C18BF24F01C
:10414000004450F1000041F1000120EAD47040F237
:10415000FE7C624500D270BDA84214BF4FF080447F
:104160004FF04044002E08BF0024BEF1806FA8BF6E
:10417000A1F1C041BDE8704080F282804FF00000A4
:1041800001F1C04101F0004170479EEA0C0F0CEABA
:10419000131518BF95EA0C0F06D04FF0000081EA06
:1041A000030E0EF0004170BD00F01CF88900013EC6
:1041B00000F007B800F009B84FEA430C5FEA5C5C16
:1041C00008D081EA030100F05BB84FEA410C5FEAD6
:1041D0005C5CF6D14FF00000014970470000FF071A
:1041E0000000F87F0EF1020E2EF0030E5EF8046B55
:1041F000364205D4012A43EB030515F5001F12D8FA
:10420000012841EB010C1CF5001F0CD80ED14FEA20
:10421000D17C15F5001F0CEB4C0C0CF1020C08BF07
:104220004CEBD37C04E04FF0080C01E04FEAD37C68
:104230000CEB4C0526FA05F606F00706B6F1040C61
:1042400006D20EEB860CBDE870404CF0010C6047C6
:10425000DFE80CF0090B02024FF000414FF00000C4
:10426000A1F5002170BD19461046012851EB01044B
:1042700018BFD4F5001484BF002001F0004170BDC8
:104280000808A0F500114FEA3101704753EA010C0C
:1042900017D41CF5801F58BFBCF5801F00F10680A5
:1042A0008B4218BF704708BF8242704707D713F58B
:1042B000801F58BF11F5801F19D48B4270479B4255
:1042C00070471CF5801F08D5BCF5801FF7D59942B3
:1042D00018BF704708BF904270474FF4001C1CEB9A
:1042E000430F38BF1CEB410F01D2994270470FB406
:1042F0000CBC03BCFFF7C1BE10B591EA030F48BF69
:1043000083F000433FF598AD841A71EB030C07D29C
:1043100012198CF0004C43EB0C03001B61EB0C01F9
:10432000DFF8A4E14FEA1154A4EB135C1EEA430F3B
:1043300018BF9EEA445F00F0B08023EA6E03524249
:1043400021EA0451C3EB6E0338BF5B1EDCF1200E83
:1043500025D322FA0CFE10EB0E0043FA0CFE41EBC3
:104360000E01CCF1200E03FA0EFE10EB0E0051F1FF
:104370000001CCF1200E29D412FA0EF201EB045107
:10438000BDE8104058BF7047401C1CBFB2F1004F41
:10439000704700280CBF491C20F00100704712EB49
:1043A000020E43EB030218BF4FF0010E4EEA420229
:1043B000ACF1200CDCF11E0E54D943FA0CFE10EBCC
:1043C0000E0051F1FF31CCF11E0ED5D50EF1010ECC
:1043D00012FA0EFE404141EB010101EB445C5FEA41
:1043E0005C5C10D910EBDE7001EB045138BFBEF1FC
:1043F000004FBDE8104018BF704700280CBF491C93
:1044000020F00100704730D24FEAD42C11F5001192
:1044100024F400641BD0B1FA81F20B3AA41AA41E52
:10442000D2F12003914030FA03F31943904001EB9D
:10443000CC71002C01EB0451BDE81040A8BF7047BF
:1044400001F1C0414FF0000001F000417047B0FAA7
:1044500080F310FA03F100D110BDE41A173C4805AF
:10446000C90AE4E701EB045110BD491001EB045106
:10447000BDE810404FEA300002E04FF00001704705
:104480004A0008BF0042F8D0B2F5001F28BF7047AD
:1044900001F000414FF0000070479EEA445F07D0F2
:1044A00011EA5E0FBDE8104004BF002100207047F4
:1044B000BDE8104070B5FFF795FE00BF40DFF63E47
:1044C00083F00041104670470000E0FF4FF040705D
:1044D000E1EE100A7047FF2141EAD050C005704755
:1044E000FCF7E1B90CF00F03092B08BF082000F01E
:1044F0005F800A2B0BD0082B18BF704708BF1CF039
:10450000400F0AD04FF000004FF0000170471CF040
:10451000400F18BF4FF0004070471CF0100F08D03C
:1045200020F0704300F07F4242EAD3014FEA43702B
:10453000704700F0604021F07F4242EA000201F043
:104540007F4040EA727070474FF0FF0C4CF4E06C13
:104550001CEA11531CBF9CEA030C9445C2BFDA420B
:1045600001EB02517047002B0DD0BCF1000F0FD0B2
:10457000002A01F00041A4BF41F0E04141F07F6119
:104580004FF00000704701F000414FF0000070470D
:1045900050EA01334FF09B0C18BF4CF0806C7FF455
:1045A000EBAC7047FCF7FABBFDF782B8FDF710BA29
:1045B0001CF4801F11D01CF4E02F03D06FEACC3123
:1045C000490070474FF04050EFF3008222F07042F4
:1045D00042EA000282F3008870474FF00000704703
:1045E00004000008000000000000000200010000BC
:1045F0001000000002400000000000A000000000C9
:1046000005400000000000C8000000000C40000051
:104610000000409C00000000194000000020BCBECB
:104620000000000034400000BFC91B8E00000004E1
:10463000B5400000504BCFD06607E2CF010000002C
:104640006C4100003E8251AADFEEA7340100000059
:10465000D9420000DCB5A0E23A301F97FFFFFFFF10
:10466000B4450000FD25A0C8E9A3C14FFFFFFFFF2F
:10467000FF3F00000000008000000000FF3F00003E
:104680000000008000000000DC470008000000205F
:1046900048000000C4010008244800084800002029
:1046A000280C0000E0010008000000000000F07F7E
:1046B0001C00000043000000F8FFFFFF0C0000009A
:1046C0000E0000000F0000002E000000100100008E
:1046D00043000000F8FFFFFF0040404040404040E2
:1046E00040404141414141404040404040404040C5
:1046F0004040404040404040400502020202020269
:1047000002020202020202020220202020202020B7
:1047100020202002020202020202909090909090CB
:104720001010101010101010101010101010101089
:1047300010101010020202020202888888888888FD
:1047400008080808080808080808080808080808E9
:1047500008080808020202024000000000000000F1
:104760000000000000000000000000000000000049
:104770000000000000000000000000000000000039
:104780000000000000000000000000000000000029
:104790000000000000000000000000000000000019
:1047A0000000000000000000000000000000000009
:1047B00000000000000000000000000000000000F9
:1047C00000000000000000000000000000000000E9
:1047D00000000000000000000000000000000000D9
:1047E00000000000000000000000000000000000C9
:1047F00000003E400000000000000000000000003B
:1048000000000000000000000000000000000000A8
:104810000000000000000102030401020304060777
:044820000809000083
:040000050800018965
:00000001FF
